:020000040800F2
:10000000F806002029020008310200083302000827
:10001000350200083702000839020008000000001D
:100020000000000000000000000000003B0200088B
:100030003D020008000000003F0200081107000810
:10004000430200084302000843020008430200087C
:10005000430200084302000843020008430200086C
:10006000430200084302000843020008430200085C
:10007000430200084302000843020008430200084C
:10008000430200084302000843020008430200083C
:10009000430200084302000843020008430200082C
:1000A000430200084302000843020008430200081C
:1000B000430200084302000843020008430200080C
:1000C00043020008430200084302000843020008FC
:1000D00043020008430200084302000843020008EC
:1000E00043020008430200084302000843020008DC
:1000F00043020008430200084302000843020008CC
:1001000043020008430200084302000843020008BB
:1001100043020008430200084302000843020008AB
:10012000430200084302000843020008430200089B
:10013000430200084302000843020008430200088B
:10014000430200084302000843020008430200087B
:10015000430200084302000843020008430200086B
:10016000430200084302000843020008430200085B
:10017000430200084302000843020008430200084B
:10018000430200084302000800F002F800F03CF8C7
:100190000AA090E8000C82448344AAF10107DA45E2
:1001A00001D100F031F8AFF2090EBAE80F0013F0F8
:1001B000010F18BFFB1A43F001031847480A00005B
:1001C000680A0000103A24BF78C878C1FAD85207EC
:1001D00024BF30C830C144BF04680C6070470000C1
:1001E0000023002400250026103A28BF78C1FBD840
:1001F000520728BF30C148BF0B6070471FB500F0E1
:10020000FBFC1FBD10B510BD00F077F81146FFF7DD
:10021000F5FF00F0C9FB00F095F803B4FFF7F2FF1B
:1002200003BC00F09DF800000948804709480047DA
:10023000FEE7FEE7FEE7FEE7FEE7FEE7FEE7FEE796
:10024000FEE7FEE704480549054A064B70470000F3
:100250002107000889010008F8000020F8060020A6
:10026000F8020020F80200200FB41CB5074B06AAC4
:100270007B4469460090059800F013F80020694619
:1002800000F022F81CBC5DF814FB000055000000D3
:10029000704770477047000001694A1C0261087886
:1002A000704700B58FB0CDE90131002105910549B6
:1002B0007944CDE903101146684600F00AF80FB002
:1002C00000BD0000E5FFFFFF0A6802F8010B0A60AD
:1002D00070472DE9F04106460024D6E90170F56823
:1002E0008046304603E04146B847641C3046A84784
:1002F0000028F8D12046BDE8F081754600F02CF8C2
:10030000AE4605006946534620F00700854618B002
:1003100020B5FFF797FFBDE820404FF000064FF0F3
:1003200000074FF000084FF0000B21F00701AC462A
:10033000ACE8C009ACE8C009ACE8C009ACE8C00949
:100340008D46704710B50446AFF300802046BDE8E7
:100350001040FFF762BF0000004870479400002083
:1003600001491820ABBEFEE72600020070470000DE
:1003700030B5164800684FF47A72B0FBF2F1481EAF
:10038000B0F1807F01D301201BE0481E4FF0E02236
:10039000506150170F22002804DB13071C0E0C4B72
:1003A0001C5406E013071D0E0A4B00F00F04241F17
:1003B0001D5500BF00204FF0E02290610720106122
:1003C000002008B100BFFEE730BD00001C00002087
:1003D00000E400E018ED00E001B50549086800BF41
:1003E00003490968091A009A9142F9D308BD00002F
:1003F00008000020F0B50A4600210023002400BFB9
:100400003DE0012505FA01F3156805EA03049C4265
:1004100034D105684F000326BE40B5430560157909
:100420004E00B5400668354305601579012D02D0B0
:100430001579022D16D185684F000326BE40B543BD
:10044000856055794E00B5408668354385604568BE
:1004500001268E40B5434560456896798E40B6B218
:1004600035434560C5684F000326BE40B543C560AF
:10047000D5794E00B540C6683543C560491C102982
:10048000BFD3F0BDF0B5002300244D07ED0E02FAF6
:1004900005F3CE1000F1200555F826504E07F70E53
:1004A0000F26BE40B543CF1000F1200646F8275076
:1004B000CE1000F1200555F8265045EA0304CE1071
:1004C00000F1200545F82640F0BD00001CB50121D3
:1004D000082000F013F801208DF804004FF470405C
:1004E000009000208DF8060003208DF80500694675
:1004F0000148FFF77FFF1CBD000C024029B1064AEE
:1005000012680243044B1A6004E0034A12688243F3
:10051000014B1A60704700003038024029B1064A8A
:1005200012680243044B1A6004E0034A12688243D3
:10053000014B1A607047000040380240F0B50021BE
:1005400000220024022500260223324F3F6807F0D4
:100550000C0121B1042905D0082937D105E02E4F1F
:10056000076036E02D4F076033E02A4F3F1F3F689A
:10057000C7F38056274F3F1F3F6807F03F036EB118
:10058000264FB7FBF3F7DFF88CC0ACF1040CDCF8B6
:1005900000C0CCF3881C07FB0CF40CE01E4FB7FB2B
:1005A000F3F7DFF870C0ACF1040CDCF800C0CCF35A
:1005B000881C07FB0CF4174F3F1F3F68C7F3014728
:1005C0007F1C7D00B4FBF5F7076002E0124F076067
:1005D00000BF00BF0F4F3F6807F0F0010909104F3F
:1005E0007A5C0768D74047600A4F3F6807F4E051DC
:1005F000890A0B4F7A5C4768D7408760054F3F6890
:1006000007F46041490B064F7A5C4768D740C760E2
:10061000F0BD0000083802400024F40000127A0007
:100620000C0000200CB500200190009034480068B8
:1006300040F480303249086000BF3148006800F45F
:10064000003000900198401C0190009818B9019862
:10065000B0F5A04FF1D12A48006800F4003010B185
:100660000120009001E0002000900098012846D170
:1006700023484030006840F08050214940310860F4
:100680002048006840F440401E4908601C4808307B
:1006900000681B49083108600846006840F40040C3
:1006A00008600846006840F4A05008601648091F1A
:1006B0000860081F006840F08070091F086000BFD4
:1006C0000F48006800F000700028F9D040F2057073
:1006D0000E4908600A480830006820F00300084905
:1006E000083108600846006840F00200086000BF5A
:1006F00003480830006800F00C000828F8D10CBD51
:10070000003802400070004019544007003C02408D
:1007100002480068401C014908607047080000203A
:1007200010B51548006840F470001349086013487C
:10073000006840F001001149086000200F490831AD
:1007400008600E4800680E4908400C4908600D48D2
:10075000091D0860081F006820F48020091F086038
:10076000002006490C310860FFF75CFF4FF0006085
:1007700001498039086010BD88ED00E00038024072
:10078000FFFFF6FE1030002421B1028842F0010282
:10079000028004E002884FF6FE731A400280704720
:1007A00070B5002400220023058C4FF6FE763540FC
:1007B0000584028C8388048B4FF68F752C40B51E00
:1007C0002C400D882C43751E2A408D892A434D8864
:1007D0002A43104DA84202D00F4DA84213D14FF624
:1007E000F7752A40CD892A434FF6FB752A408D883C
:1007F0002A434FF6FF652B404FF6FF552B400D8ADD
:100800002B434D8A2B43838004838D684563028488
:1008100070BD000000000140000401400A460021B4
:10082000018B4FF6F77319401143018370470000A5
:1008300000220288184B98420ED0184B98420BD0D9
:10084000B0F1804F08D0164B984205D0154B984216
:1008500002D0154B984204D14FF68F731A404B8843
:100860001A43124B984207D0114B984204D04FF6CE
:10087000FF431A400B891A4302804B68C3620B88FE
:100880000385054B984202D0044B984201D18B7AE4
:100890000386012383827047000001400004014069
:1008A0000004004000080040000C00400010004020
:1008B0000014004021B1828942F40052828104E098
:1008C00082894DF6FF731A40828170472DE9FF47F8
:1008D00005460E460024A14600BFA046B08900B1DF
:1008E00000BF2C8A24F44054F08804432C82AC8945
:1008F00041F20C608443B088318908437189084310
:100900000443AC81AC8A24F44074B0890443AC82C3
:100910006846FFF713FE2048854202D01F488542F3
:1009200002D1DDF80C9001E0DDF80890A88900F410
:10093000004040B109EBC90000EB091031684900E3
:10094000B0FBF1F707E009EBC90000EB09103168D3
:100950008900B0FBF1F76420B7FBF0F00401200937
:10096000642101FB1078A88900F4004040B13220D6
:1009700000EBC800B0FBF1F000F00700044308E012
:10098000322000EB08106421B0FBF1F000F00F0002
:1009900004432C81BDE8FF87001001400014014092
:1009A000C1F308028280704700F0E4F8FFF78EFD83
:1009B00019E00DA11048FFF757FC0F4801780F48C8
:1009C000FFF7EEFFFFF7D4FC0120FFF705FD00F075
:1009D00073F80120FFF700FD00F012F80120FFF787
:1009E000FBFC00F069F8E4E746697261746D6163CD
:1009F00061200D200A00000030000020004400406B
:100A000000B58BB001210820FFF778FD01210420FB
:100A1000FFF784FD4FF44050099002208DF8280024
:100A200000208DF82A0003208DF8290001208DF880
:100A30002B0009A91E48FFF7DDFC02220C211C48EF
:100A4000FFF720FD02220D211948FFF71BFD44F698
:100A50001F6007905420ADF818000020ADF81A0070
:100A6000ADF820008DF8220006A91248FFF7E0FE3D
:100A700001211048FFF788FE6020ADF80400012036
:100A8000ADF806000020ADF810000120FFF7A4FC2F
:100A90000120039001A90748FFF782FE08210548BD
:100AA000FFF7BCFE0120FFF797FC0BB000BD000074
:100AB000000C02400008004000B58BB0FFF758FC66
:100AC00001210820FFF71AFD01210420FFF726FD70
:100AD0004FF44050099002208DF8280000208DF836
:100AE0002A0003208DF8290001208DF82B0009A988
:100AF0001E48FFF77FFC02220C211C48FFF7C2FCB6
:100B000002220D211948FFF7BDFC44F61F60079033
:100B10005420ADF818000020ADF81A00ADF8200000
:100B20008DF8220006A91248FFF782FE0121104825
:100B3000FFF72AFE6020ADF804000120ADF80600A2
:100B40000020ADF810000120FFF746FC40F2D6600F
:100B5000039001A90648FFF723FE08210448FFF788
:100B60005DFE0120FFF738FC0BB000BD000C024019
:100B70000008004000B587B001214804FFF7CEFC13
:100B800001210846FFF7BAFC02208DF818000C205E
:100B9000059001208DF81B0003208DF8190005A990
:100BA0001348FFF727FC072202211148FFF76AFCD0
:100BB000072203210E48FFF765FC4FF4E130019056
:100BC0000020ADF810000C20ADF80E000020ADF8AC
:100BD0000C00ADF80A00ADF8080001A90548FFF7C0
:100BE00075FE01210348FFF765FE07B000BD000058
:100BF00000000240004400404FF04070E1EE100A57
:100C000070470000240C00080000002030000000A5
:100C1000C4010008540C000830000020C806000081
:100C2000E0010008000000000000000000000000DB
:100C30000000000001020304010203040607080982
:100C4000007A030A00000000000000000102030413
:040C50000607080982
:0400000508000229C4
:00000001FF
