:020000040800F2
:10000000C00800202902000831020008330200085D
:10001000350200083702000839020008000000001D
:100020000000000000000000000000003B0200088B
:100030003D020008000000003F02000849070008D8
:10004000430200084302000843020008430200087C
:10005000430200084302000843020008430200086C
:10006000430200084302000843020008430200085C
:10007000430200084302000843020008430200084C
:10008000430200084302000843020008430200083C
:10009000430200084302000843020008430200082C
:1000A000430200084302000843020008430200081C
:1000B000430200084302000843020008430200080C
:1000C00043020008430200084302000843020008FC
:1000D0004302000843020008ED080008430200083C
:1000E00043020008430200084302000843020008DC
:1000F00043020008430200084302000843020008CC
:1001000043020008430200084302000843020008BB
:1001100043020008430200084302000843020008AB
:10012000430200084302000843020008430200089B
:10013000430200084302000843020008430200088B
:10014000430200084302000843020008430200087B
:10015000430200084302000843020008430200086B
:10016000430200084302000843020008430200085B
:10017000430200084302000843020008430200084B
:10018000430200084302000800F002F800F03CF8C7
:100190000AA090E8000C82448344AAF10107DA45E2
:1001A00001D100F031F8AFF2090EBAE80F0013F0F8
:1001B000010F18BFFB1A43F001031847A80B0000FA
:1001C000C80B0000103A24BF78C878C1FAD852078B
:1001D00024BF30C830C144BF04680C6070470000C1
:1001E0000023002400250026103A28BF78C1FBD840
:1001F000520728BF30C148BF0B6070471FB500F0E1
:10020000ABFD1FBD10B510BD00F043F81146FFF760
:10021000F5FF00F051FC00F061F803B4FFF7F2FFC6
:1002200003BC00F069F8000009488047094800470E
:10023000FEE7FEE7FEE7FEE7FEE7FEE7FEE7FEE796
:10024000FEE7FEE704480549054A064B70470000F3
:100250005907000889010008C0020020C0080020DA
:10026000C0040020C004002030B505460B462A46D5
:1002700013F8014B12F8010B08B1A042F8D01CB1E1
:10028000002802D06D1CF1E7284630BD704770474A
:100290007047754600F02CF8AE4605006946534697
:1002A00020F00700854618B020B5FFF7CBFFBDE86A
:1002B00020404FF000064FF000074FF000084FF0CD
:1002C000000B21F00701AC46ACE8C009ACE8C0095E
:1002D000ACE8C009ACE8C0098D46704710B50446CB
:1002E000AFF300802046BDE81040FFF796BF000046
:1002F000004870475C02002001491820ABBEFEE7B1
:10030000260002007047000030B5164800684FF420
:100310007A72B0FBF2F1481EB0F1807F01D3012068
:100320001BE0481E4FF0E022506150170F220028BA
:1003300004DB13071C0E0C4B1C5406E013071D0EA8
:100340000A4B00F00F04241F1D5500BF00204FF082
:10035000E022906107201061002008B100BFFEE795
:1003600030BD00002000002000E400E018ED00E0B7
:10037000002004E00021054A1154411C88B2B0F568
:10038000FA7FF7DB0021024A1180704766000020E7
:100390000000002001B50549086800BF034909684D
:1003A000091A009A9142F9D308BD00000C00002000
:1003B000F0B50A4600210023002400BF3DE00125DE
:1003C00005FA01F3156805EA03049C4234D1056877
:1003D0004F000326BE40B543056015794E00B54079
:1003E0000668354305601579012D02D01579022D77
:1003F00016D185684F000326BE40B5438560557908
:100400004E00B540866835438560456801268E40BC
:10041000B5434560456896798E40B6B23543456030
:10042000C5684F000326BE40B543C560D5794E0070
:10043000B540C6683543C560491C1029BFD3F0BD1F
:10044000F0B5002300244D07ED0E02FA05F3CE109F
:1004500000F1200555F826504E07F70E0F26BE4036
:10046000B543CF1000F1200646F82750CE1000F11A
:10047000200555F8265045EA0304CE1000F120056A
:1004800045F82640F0BD0183704700001CB50121EE
:10049000082000F04FF801208DF804004FF4704060
:1004A000009000208DF8060003208DF805006946B5
:1004B0000148FFF77DFF1CBD000C024070B5002114
:1004C00000230F22C4781CB3174C246804F4E064A2
:1004D000C4F5E064C4F30721C1F10404E3B20A41A6
:1004E00044789C40E1B28478144021430C07210EEB
:1004F0000E4C05786155047804F01F050124AC40CA
:1005000005786D11AD0005F1E025C5F8004109E061
:10051000047804F01F050124AC40054D06787611DF
:1005200045F8264070BD00000CED00E000E400E05E
:1005300080E100E029B1064A12680243044B1A60C8
:1005400004E0034A12688243014B1A6070470000BE
:100550003038024029B1064A12680243044B1A603F
:1005600004E0034A12688243014B1A60704700009E
:1005700040380240F0B50021002200240225002668
:100580000223324F3F6807F00C0121B1042905D046
:10059000082937D105E02E4F076036E02D4F076060
:1005A00033E02A4F3F1F3F68C7F38056274F3F1F56
:1005B0003F6807F03F036EB1264FB7FBF3F7DFF854
:1005C0008CC0ACF1040CDCF800C0CCF3881C07FB39
:1005D0000CF40CE01E4FB7FBF3F7DFF870C0ACF182
:1005E000040CDCF800C0CCF3881C07FB0CF4174F9C
:1005F0003F1F3F68C7F301477F1C7D00B4FBF5F741
:10060000076002E0124F076000BF00BF0F4F3F6856
:1006100007F0F0010909104F7A5C0768D74047607E
:100620000A4F3F6807F4E051890A0B4F7A5C47682C
:10063000D7408760054F3F6807F46041490B064F7C
:100640007A5C4768D740C760F0BD000008380240B8
:100650000024F40000127A00100000200CB50020E5
:10066000019000903448006840F4803032490860BE
:1006700000BF3148006800F4003000900198401C31
:100680000190009818B90198B0F5A04FF1D12A480F
:10069000006800F4003010B10120009001E000205B
:1006A00000900098012846D123484030006840F06F
:1006B00080502149403108602048006840F44040A3
:1006C0001E4908601C48083000681B490831086052
:1006D0000846006840F4004008600846006840F49E
:1006E000A05008601648091F0860081F006840F005
:1006F0008070091F086000BF0F48006800F000709C
:100700000028F9D040F205700E4908600A48083008
:10071000006820F0030008490831086008460068B6
:1007200040F00200086000BF03480830006800F095
:100730000C000828F8D10CBD0038024000700040C1
:1007400019544007003C024002480068401C01491F
:10075000086070470C00002010B51548006840F490
:100760007000134908601348006840F00100114907
:10077000086000200F49083108600E4800680E49E3
:1007800008400C4908600D48091D0860081F0068F2
:1007900020F48020091F0860002006490C31086001
:1007A000FFF75CFF4FF0006001498039086010BD21
:1007B00088ED00E000380240FFFFF6FE1030002414
:1007C00021B1028842F00102028004E002884FF663
:1007D000FE731A400280704770B500240022002387
:1007E000058C4FF6FE7635400584028C8388048B99
:1007F0004FF68F752C40B51E2C400D882C43751E6E
:100800002A408D892A434D882A43104DA84202D0A0
:100810000F4DA84213D14FF6F7752A40CD892A43D0
:100820004FF6FB752A408D882A434FF6FF652B4013
:100830004FF6FF552B400D8A2B434D8A2B43838067
:1008400004838D684563028470BD00000000014090
:10085000000401400A460021018B4FF6F77319404E
:10086000114301837047000000220288184B984210
:100870000ED0184B98420BD0B0F1804F08D0164BD9
:10088000984205D0154B984202D0154B984204D19E
:100890004FF68F731A404B881A43124B984207D079
:1008A000114B984204D04FF6FF431A400B891A436C
:1008B00002804B68C3620B880385054B984202D0C7
:1008C000044B984201D18B7A0386012383827047BF
:1008D0000000014000040140000400400008004006
:1008E000000C0040001000400014004010B540F221
:1008F00025510B4800F026F888B10949091D0988DF
:10090000C8B20749091D088040B10649064A128845
:10091000885405490988491C034A118000BF10BD4D
:1009200000440040660000200000002021B18289C0
:1009300042F40052828104E082894DF6FF731A402E
:100940008281704770B502460024002300250020F4
:1009500040F66A16B14200D100BFC1F3421501F062
:100960001F03012606FA03F3012D02D196893340B5
:1009700006E0022D02D1168A334001E0968A334008
:100980000C12012606FA04F41688344013B10CB197
:10099000012000E0002070BDF0B5034600240026D1
:1009A0000025002040F66A17B94200D100BF184662
:1009B000C1F3421401F01F06012707FA06F5012CC6
:1009C00001D10C3004E0022C01D1103000E01430D1
:1009D0001AB107682F43076002E00768AF4307605A
:1009E000F0BD00002DE9FF4705460E460024A14654
:1009F00000BFA046B08900B100BF2C8A24F4405447
:100A0000F08804432C82AC8941F20C608443B088A6
:100A100031890843718908430443AC81AC8A24F4CA
:100A20004074B0890443AC826846FFF7A3FD2048B8
:100A3000854202D01F48854202D1DDF80C9001E0CA
:100A4000DDF80890A88900F4004040B109EBC90026
:100A500000EB091031684900B0FBF1F707E009EB42
:100A6000C90000EB091031688900B0FBF1F7642080
:100A7000B7FBF0F004012009642101FB1078A8897C
:100A800000F4004040B1322000EBC800B0FBF1F0B0
:100A900000F00700044308E0322000EB0810642156
:100AA000B0FBF1F000F00F0004432C81BDE8FF879C
:100AB000001001400014014000F0F8F8FFF7E6FCD8
:100AC000FFF756FC01E000F001F8FCE710B514A1B7
:100AD0001548FFF7C9FB70B1FFF716FC0120FFF7BF
:100AE00059FC00F085F84FF400411048FFF7CBFCAB
:100AF000FFF73EFC12E00EA10B48FFF7B5FB68B113
:100B0000FFF702FC0120FFF745FC00F015F84FF459
:100B100080410648FFF7B7FCFFF72AFC10BD000034
:100B20006F70656E0000000066000020000C02403F
:100B3000636C6F736500000000B58BB00121082065
:100B4000FFF7F8FC01210420FFF704FD4FF44050AB
:100B5000099002208DF8280000208DF82A0003203B
:100B60008DF8290001208DF82B0009A91E48FFF7F8
:100B70001FFC02220C211C48FFF762FC02220D21FF
:100B80001948FFF75DFC44F61F6007905420ADF84C
:100B900018000020ADF81A00ADF820008DF82200F2
:100BA00006A91248FFF760FE01211048FFF708FE72
:100BB0006020ADF804000120ADF806000020ADF87B
:100BC00010000120FFF7E6FB4FF4C870039001A965
:100BD0000648FFF701FE08210448FFF73BFE01200D
:100BE000FFF7D8FB0BB000BD000C0240000800402E
:100BF00000B58BB0FFF788FB01210820FFF79AFCB6
:100C000001210420FFF7A6FC4FF440500990022078
:100C10008DF8280000208DF82A0003208DF8290087
:100C200001208DF82B0009A91E48FFF7C1FB022205
:100C30000C211C48FFF704FC02220D211948FFF784
:100C4000FFFB44F61F6007905420ADF81800002009
:100C5000ADF81A00ADF820008DF8220006A9124860
:100C6000FFF702FE01211048FFF7AAFD6020ADF852
:100C700004000120ADF806000020ADF810000120AE
:100C8000FFF788FB40F2EE20039001A90648FFF72A
:100C9000A3FD08210448FFF7DDFD0120FFF77AFBE3
:100CA0000BB000BD000C02400008004000B587B04A
:100CB00001214804FFF74EFC01210846FFF73AFCEA
:100CC00002208DF818000C20059001208DF81B00E3
:100CD00003208DF8190005A91D48FFF769FB0722BD
:100CE00002211B48FFF7ACFB072203211848FFF73E
:100CF000A7FB4FF4E13001900020ADF810000C206C
:100D0000ADF80E000020ADF80C00ADF80A00ADF80B
:100D1000080001A90F48FFF765FE012240F22551A6
:100D20000C48FFF739FE26208DF8000000208DF8D2
:100D300001008DF8020001208DF803006846FFF7DE
:100D4000BDFB01210348FFF7F1FD07B000BD000026
:100D500000000240004400404FF04070E1EE100AF5
:100D600070470000840D00080000002034000000DF
:100D7000C4010008B80D0008340000208C080000F1
:100D8000E00100080000000000000000000000007A
:100D9000000000000000000001020304010203043F
:100DA00006070809007A030A00000000000000009E
:080DB000010203040607080913
:0400000508000229C4
:00000001FF
